{
  "_format": "hh-sol-artifact-1",
  "contractName": "SchoolManagement",
  "sourceName": "contracts/SchoolManagement.sol",
  "abi": [
    {
      "inputs": [],
      "stateMutability": "nonpayable",
      "type": "constructor"
    },
    {
      "inputs": [],
      "name": "admin",
      "outputs": [
        {
          "internalType": "address",
          "name": "",
          "type": "address"
        }
      ],
      "stateMutability": "view",
      "type": "function"
    },
    {
      "inputs": [],
      "name": "getAllStudents",
      "outputs": [
        {
          "internalType": "uint256[]",
          "name": "",
          "type": "uint256[]"
        }
      ],
      "stateMutability": "view",
      "type": "function"
    },
    {
      "inputs": [
        {
          "internalType": "uint256",
          "name": "_id",
          "type": "uint256"
        }
      ],
      "name": "getStudentById",
      "outputs": [
        {
          "internalType": "string",
          "name": "",
          "type": "string"
        }
      ],
      "stateMutability": "view",
      "type": "function"
    },
    {
      "inputs": [
        {
          "internalType": "uint256",
          "name": "_id",
          "type": "uint256"
        },
        {
          "internalType": "string",
          "name": "_name",
          "type": "string"
        }
      ],
      "name": "registerStudent",
      "outputs": [],
      "stateMutability": "nonpayable",
      "type": "function"
    },
    {
      "inputs": [
        {
          "internalType": "uint256",
          "name": "_id",
          "type": "uint256"
        }
      ],
      "name": "removeStudent",
      "outputs": [],
      "stateMutability": "nonpayable",
      "type": "function"
    }
  ],
  "bytecode": "0x6080604052348015600f57600080fd5b50336000806101000a81548173ffffffffffffffffffffffffffffffffffffffff021916908373ffffffffffffffffffffffffffffffffffffffff160217905550610fa48061005f6000396000f3fe608060405234801561001057600080fd5b50600436106100575760003560e01c80633f9586d41461005c5780636af8384514610078578063c8fb079314610094578063e9e30927146100c4578063f851a440146100e2575b600080fd5b610076600480360381019061007191906107ff565b610100565b005b610092600480360381019061008d919061085b565b610293565b005b6100ae60048036038101906100a9919061085b565b61048b565b6040516100bb9190610907565b60405180910390f35b6100cc610596565b6040516100d991906109e7565b60405180910390f35b6100ea6105ee565b6040516100f79190610a4a565b60405180910390f35b60008054906101000a900473ffffffffffffffffffffffffffffffffffffffff1673ffffffffffffffffffffffffffffffffffffffff163373ffffffffffffffffffffffffffffffffffffffff161461018e576040517f08c379a000000000000000000000000000000000000000000000000000000000815260040161018590610ad7565b60405180910390fd5b6001600083815260200190815260200160002060020160009054906101000a900460ff16156101f2576040517f08c379a00000000000000000000000000000000000000000000000000000000081526004016101e990610b43565b60405180910390fd5b604051806060016040528083815260200182815260200160011515815250600160008481526020019081526020016000206000820151816000015560208201518160010190816102429190610d6f565b5060408201518160020160006101000a81548160ff02191690831515021790555090505060028290806001815401808255809150506001900390600052602060002001600090919091909150555050565b60008054906101000a900473ffffffffffffffffffffffffffffffffffffffff1673ffffffffffffffffffffffffffffffffffffffff163373ffffffffffffffffffffffffffffffffffffffff1614610321576040517f08c379a000000000000000000000000000000000000000000000000000000000815260040161031890610ad7565b60405180910390fd5b6001600082815260200190815260200160002060020160009054906101000a900460ff16610384576040517f08c379a000000000000000000000000000000000000000000000000000000000815260040161037b90610e8d565b60405180910390fd5b600160008281526020019081526020016000206000808201600090556001820160006103b09190610612565b6002820160006101000a81549060ff0219169055505060005b6002805490508110156104875781600282815481106103eb576103ea610ead565b5b90600052602060002001540361047a576002600160028054905061040f9190610f0b565b815481106104205761041f610ead565b5b90600052602060002001546002828154811061043f5761043e610ead565b5b9060005260206000200181905550600280548061045f5761045e610f3f565b5b60019003818190600052602060002001600090559055610487565b80806001019150506103c9565b5050565b60606001600083815260200190815260200160002060020160009054906101000a900460ff166104f0576040517f08c379a00000000000000000000000000000000000000000000000000000000081526004016104e790610e8d565b60405180910390fd5b60016000838152602001908152602001600020600101805461051190610b92565b80601f016020809104026020016040519081016040528092919081815260200182805461053d90610b92565b801561058a5780601f1061055f5761010080835404028352916020019161058a565b820191906000526020600020905b81548152906001019060200180831161056d57829003601f168201915b50505050509050919050565b606060028054806020026020016040519081016040528092919081815260200182805480156105e457602002820191906000526020600020905b8154815260200190600101908083116105d0575b5050505050905090565b60008054906101000a900473ffffffffffffffffffffffffffffffffffffffff1681565b50805461061e90610b92565b6000825580601f10610630575061064f565b601f01602090049060005260206000209081019061064e9190610652565b5b50565b5b8082111561066b576000816000905550600101610653565b5090565b6000604051905090565b600080fd5b600080fd5b6000819050919050565b61069681610683565b81146106a157600080fd5b50565b6000813590506106b38161068d565b92915050565b600080fd5b600080fd5b6000601f19601f8301169050919050565b7f4e487b7100000000000000000000000000000000000000000000000000000000600052604160045260246000fd5b61070c826106c3565b810181811067ffffffffffffffff8211171561072b5761072a6106d4565b5b80604052505050565b600061073e61066f565b905061074a8282610703565b919050565b600067ffffffffffffffff82111561076a576107696106d4565b5b610773826106c3565b9050602081019050919050565b82818337600083830152505050565b60006107a261079d8461074f565b610734565b9050828152602081018484840111156107be576107bd6106be565b5b6107c9848285610780565b509392505050565b600082601f8301126107e6576107e56106b9565b5b81356107f684826020860161078f565b91505092915050565b6000806040838503121561081657610815610679565b5b6000610824858286016106a4565b925050602083013567ffffffffffffffff8111156108455761084461067e565b5b610851858286016107d1565b9150509250929050565b60006020828403121561087157610870610679565b5b600061087f848285016106a4565b91505092915050565b600081519050919050565b600082825260208201905092915050565b60005b838110156108c25780820151818401526020810190506108a7565b60008484015250505050565b60006108d982610888565b6108e38185610893565b93506108f38185602086016108a4565b6108fc816106c3565b840191505092915050565b6000602082019050818103600083015261092181846108ce565b905092915050565b600081519050919050565b600082825260208201905092915050565b6000819050602082019050919050565b61095e81610683565b82525050565b60006109708383610955565b60208301905092915050565b6000602082019050919050565b600061099482610929565b61099e8185610934565b93506109a983610945565b8060005b838110156109da5781516109c18882610964565b97506109cc8361097c565b9250506001810190506109ad565b5085935050505092915050565b60006020820190508181036000830152610a018184610989565b905092915050565b600073ffffffffffffffffffffffffffffffffffffffff82169050919050565b6000610a3482610a09565b9050919050565b610a4481610a29565b82525050565b6000602082019050610a5f6000830184610a3b565b92915050565b7f4f6e6c79207468652061646d696e2063616e20706572666f726d20746869732060008201527f616374696f6e0000000000000000000000000000000000000000000000000000602082015250565b6000610ac1602683610893565b9150610acc82610a65565b604082019050919050565b60006020820190508181036000830152610af081610ab4565b9050919050565b7f53747564656e7420616c72656164792072656769737465726564000000000000600082015250565b6000610b2d601a83610893565b9150610b3882610af7565b602082019050919050565b60006020820190508181036000830152610b5c81610b20565b9050919050565b7f4e487b7100000000000000000000000000000000000000000000000000000000600052602260045260246000fd5b60006002820490506001821680610baa57607f821691505b602082108103610bbd57610bbc610b63565b5b50919050565b60008190508160005260206000209050919050565b60006020601f8301049050919050565b600082821b905092915050565b600060088302610c257fffffffffffffffffffffffffffffffffffffffffffffffffffffffffffffffff82610be8565b610c2f8683610be8565b95508019841693508086168417925050509392505050565b6000819050919050565b6000610c6c610c67610c6284610683565b610c47565b610683565b9050919050565b6000819050919050565b610c8683610c51565b610c9a610c9282610c73565b848454610bf5565b825550505050565b600090565b610caf610ca2565b610cba818484610c7d565b505050565b5b81811015610cde57610cd3600082610ca7565b600181019050610cc0565b5050565b601f821115610d2357610cf481610bc3565b610cfd84610bd8565b81016020851015610d0c578190505b610d20610d1885610bd8565b830182610cbf565b50505b505050565b600082821c905092915050565b6000610d4660001984600802610d28565b1980831691505092915050565b6000610d5f8383610d35565b9150826002028217905092915050565b610d7882610888565b67ffffffffffffffff811115610d9157610d906106d4565b5b610d9b8254610b92565b610da6828285610ce2565b600060209050601f831160018114610dd95760008415610dc7578287015190505b610dd18582610d53565b865550610e39565b601f198416610de786610bc3565b60005b82811015610e0f57848901518255600182019150602085019450602081019050610dea565b86831015610e2c5784890151610e28601f891682610d35565b8355505b6001600288020188555050505b505050505050565b7f53747564656e74206e6f7420666f756e64000000000000000000000000000000600082015250565b6000610e77601183610893565b9150610e8282610e41565b602082019050919050565b60006020820190508181036000830152610ea681610e6a565b9050919050565b7f4e487b7100000000000000000000000000000000000000000000000000000000600052603260045260246000fd5b7f4e487b7100000000000000000000000000000000000000000000000000000000600052601160045260246000fd5b6000610f1682610683565b9150610f2183610683565b9250828203905081811115610f3957610f38610edc565b5b92915050565b7f4e487b7100000000000000000000000000000000000000000000000000000000600052603160045260246000fdfea26469706673582212205d977471b6393b1b50aa7a06930e962f087ed22c5d3989d805bab33678c9276764736f6c634300081c0033",
  "linkReferences": {},
  "deployedLinkReferences": {}
}